{
  "_format": "hh-sol-artifact-1",
  "contractName": "MyEpicNFT",
  "sourceName": "contracts/MyEpicNFT.sol",
  "abi": [
    {
      "inputs": [],
      "stateMutability": "nonpayable",
      "type": "constructor"
    },
    {
      "anonymous": false,
      "inputs": [
        {
          "indexed": true,
          "internalType": "address",
          "name": "owner",
          "type": "address"
        },
        {
          "indexed": true,
          "internalType": "address",
          "name": "approved",
          "type": "address"
        },
        {
          "indexed": true,
          "internalType": "uint256",
          "name": "tokenId",
          "type": "uint256"
        }
      ],
      "name": "Approval",
      "type": "event"
    },
    {
      "anonymous": false,
      "inputs": [
        {
          "indexed": true,
          "internalType": "address",
          "name": "owner",
          "type": "address"
        },
        {
          "indexed": true,
          "internalType": "address",
          "name": "operator",
          "type": "address"
        },
        {
          "indexed": false,
          "internalType": "bool",
          "name": "approved",
          "type": "bool"
        }
      ],
      "name": "ApprovalForAll",
      "type": "event"
    },
    {
      "anonymous": false,
      "inputs": [
        {
          "indexed": true,
          "internalType": "address",
          "name": "from",
          "type": "address"
        },
        {
          "indexed": true,
          "internalType": "address",
          "name": "to",
          "type": "address"
        },
        {
          "indexed": true,
          "internalType": "uint256",
          "name": "tokenId",
          "type": "uint256"
        }
      ],
      "name": "Transfer",
      "type": "event"
    },
    {
      "inputs": [
        {
          "internalType": "address",
          "name": "to",
          "type": "address"
        },
        {
          "internalType": "uint256",
          "name": "tokenId",
          "type": "uint256"
        }
      ],
      "name": "approve",
      "outputs": [],
      "stateMutability": "nonpayable",
      "type": "function"
    },
    {
      "inputs": [
        {
          "internalType": "address",
          "name": "owner",
          "type": "address"
        }
      ],
      "name": "balanceOf",
      "outputs": [
        {
          "internalType": "uint256",
          "name": "",
          "type": "uint256"
        }
      ],
      "stateMutability": "view",
      "type": "function"
    },
    {
      "inputs": [
        {
          "internalType": "uint256",
          "name": "tokenId",
          "type": "uint256"
        }
      ],
      "name": "getApproved",
      "outputs": [
        {
          "internalType": "address",
          "name": "",
          "type": "address"
        }
      ],
      "stateMutability": "view",
      "type": "function"
    },
    {
      "inputs": [
        {
          "internalType": "address",
          "name": "owner",
          "type": "address"
        },
        {
          "internalType": "address",
          "name": "operator",
          "type": "address"
        }
      ],
      "name": "isApprovedForAll",
      "outputs": [
        {
          "internalType": "bool",
          "name": "",
          "type": "bool"
        }
      ],
      "stateMutability": "view",
      "type": "function"
    },
    {
      "inputs": [],
      "name": "makeAnEpicNFT",
      "outputs": [],
      "stateMutability": "nonpayable",
      "type": "function"
    },
    {
      "inputs": [],
      "name": "name",
      "outputs": [
        {
          "internalType": "string",
          "name": "",
          "type": "string"
        }
      ],
      "stateMutability": "view",
      "type": "function"
    },
    {
      "inputs": [
        {
          "internalType": "uint256",
          "name": "tokenId",
          "type": "uint256"
        }
      ],
      "name": "ownerOf",
      "outputs": [
        {
          "internalType": "address",
          "name": "",
          "type": "address"
        }
      ],
      "stateMutability": "view",
      "type": "function"
    },
    {
      "inputs": [
        {
          "internalType": "address",
          "name": "from",
          "type": "address"
        },
        {
          "internalType": "address",
          "name": "to",
          "type": "address"
        },
        {
          "internalType": "uint256",
          "name": "tokenId",
          "type": "uint256"
        }
      ],
      "name": "safeTransferFrom",
      "outputs": [],
      "stateMutability": "nonpayable",
      "type": "function"
    },
    {
      "inputs": [
        {
          "internalType": "address",
          "name": "from",
          "type": "address"
        },
        {
          "internalType": "address",
          "name": "to",
          "type": "address"
        },
        {
          "internalType": "uint256",
          "name": "tokenId",
          "type": "uint256"
        },
        {
          "internalType": "bytes",
          "name": "_data",
          "type": "bytes"
        }
      ],
      "name": "safeTransferFrom",
      "outputs": [],
      "stateMutability": "nonpayable",
      "type": "function"
    },
    {
      "inputs": [
        {
          "internalType": "address",
          "name": "operator",
          "type": "address"
        },
        {
          "internalType": "bool",
          "name": "approved",
          "type": "bool"
        }
      ],
      "name": "setApprovalForAll",
      "outputs": [],
      "stateMutability": "nonpayable",
      "type": "function"
    },
    {
      "inputs": [
        {
          "internalType": "bytes4",
          "name": "interfaceId",
          "type": "bytes4"
        }
      ],
      "name": "supportsInterface",
      "outputs": [
        {
          "internalType": "bool",
          "name": "",
          "type": "bool"
        }
      ],
      "stateMutability": "view",
      "type": "function"
    },
    {
      "inputs": [],
      "name": "symbol",
      "outputs": [
        {
          "internalType": "string",
          "name": "",
          "type": "string"
        }
      ],
      "stateMutability": "view",
      "type": "function"
    },
    {
      "inputs": [
        {
          "internalType": "uint256",
          "name": "tokenId",
          "type": "uint256"
        }
      ],
      "name": "tokenURI",
      "outputs": [
        {
          "internalType": "string",
          "name": "",
          "type": "string"
        }
      ],
      "stateMutability": "view",
      "type": "function"
    },
    {
      "inputs": [
        {
          "internalType": "address",
          "name": "from",
          "type": "address"
        },
        {
          "internalType": "address",
          "name": "to",
          "type": "address"
        },
        {
          "internalType": "uint256",
          "name": "tokenId",
          "type": "uint256"
        }
      ],
      "name": "transferFrom",
      "outputs": [],
      "stateMutability": "nonpayable",
      "type": "function"
    }
  ],
  "bytecode": "0x60806040523480156200001157600080fd5b506040518060400160405280600981526020017f5371756172654e465400000000000000000000000000000000000000000000008152506040518060400160405280600681526020017f5351554152450000000000000000000000000000000000000000000000000000815250816000908051906020019062000096929190620001cf565b508060019080519060200190620000af929190620001cf565b505050620000fd6040518060400160405280601e81526020017f54686973206973206d79204e465420636f6e74726163742e2057686f612100008152506200010360201b62000b391760201c565b620003ac565b620001a3816040516024016200011a9190620002c0565b6040516020818303038152906040527f41304fac000000000000000000000000000000000000000000000000000000007bffffffffffffffffffffffffffffffffffffffffffffffffffffffff19166020820180517bffffffffffffffffffffffffffffffffffffffffffffffffffffffff8381831617835250505050620001a660201b60201c565b50565b60008151905060006a636f6e736f6c652e6c6f679050602083016000808483855afa5050505050565b828054620001dd9062000336565b90600052602060002090601f0160209004810192826200020157600085556200024d565b82601f106200021c57805160ff19168380011785556200024d565b828001600101855582156200024d579182015b828111156200024c5782518255916020019190600101906200022f565b5b5090506200025c919062000260565b5090565b5b808211156200027b57600081600090555060010162000261565b5090565b60006200028c82620002e4565b620002988185620002ef565b9350620002aa81856020860162000300565b620002b5816200039b565b840191505092915050565b60006020820190508181036000830152620002dc81846200027f565b905092915050565b600081519050919050565b600082825260208201905092915050565b60005b838110156200032057808201518184015260208101905062000303565b8381111562000330576000848401525b50505050565b600060028204905060018216806200034f57607f821691505b602082108114156200036657620003656200036c565b5b50919050565b7f4e487b7100000000000000000000000000000000000000000000000000000000600052602260045260246000fd5b6000601f19601f8301169050919050565b6153e480620003bc6000396000f3fe608060405234801561001057600080fd5b50600436106100ea5760003560e01c806370a082311161008c578063b88d4fde11610066578063b88d4fde1461025b578063c87b56dd14610277578063de9d132f146102a7578063e985e9c5146102b1576100ea565b806370a08231146101f157806395d89b4114610221578063a22cb4651461023f576100ea565b8063095ea7b3116100c8578063095ea7b31461016d57806323b872dd1461018957806342842e0e146101a55780636352211e146101c1576100ea565b806301ffc9a7146100ef57806306fdde031461011f578063081812fc1461013d575b600080fd5b61010960048036038101906101049190611d48565b6102e1565b604051610116919061214e565b60405180910390f35b6101276103c3565b6040516101349190612169565b60405180910390f35b61015760048036038101906101529190611d9a565b610455565b60405161016491906120e7565b60405180910390f35b61018760048036038101906101829190611d0c565b6104da565b005b6101a3600480360381019061019e9190611c06565b6105f2565b005b6101bf60048036038101906101ba9190611c06565b610652565b005b6101db60048036038101906101d69190611d9a565b610672565b6040516101e891906120e7565b60405180910390f35b61020b60048036038101906102069190611ba1565b610724565b60405161021891906123c9565b60405180910390f35b6102296107dc565b6040516102369190612169565b60405180910390f35b61025960048036038101906102549190611cd0565b61086e565b005b61027560048036038101906102709190611c55565b610884565b005b610291600480360381019061028c9190611d9a565b6108e6565b60405161029e9190612169565b60405180910390f35b6102af610a38565b005b6102cb60048036038101906102c69190611bca565b610aa5565b6040516102d8919061214e565b60405180910390f35b60007f80ac58cd000000000000000000000000000000000000000000000000000000007bffffffffffffffffffffffffffffffffffffffffffffffffffffffff1916827bffffffffffffffffffffffffffffffffffffffffffffffffffffffff191614806103ac57507f5b5e139f000000000000000000000000000000000000000000000000000000007bffffffffffffffffffffffffffffffffffffffffffffffffffffffff1916827bffffffffffffffffffffffffffffffffffffffffffffffffffffffff1916145b806103bc57506103bb82610bd2565b5b9050919050565b6060600080546103d2906125ee565b80601f01602080910402602001604051908101604052809291908181526020018280546103fe906125ee565b801561044b5780601f106104205761010080835404028352916020019161044b565b820191906000526020600020905b81548152906001019060200180831161042e57829003601f168201915b5050505050905090565b600061046082610c3c565b61049f576040517f08c379a000000000000000000000000000000000000000000000000000000000815260040161049690612329565b60405180910390fd5b6004600083815260200190815260200160002060009054906101000a900473ffffffffffffffffffffffffffffffffffffffff169050919050565b60006104e582610672565b90508073ffffffffffffffffffffffffffffffffffffffff168373ffffffffffffffffffffffffffffffffffffffff161415610556576040517f08c379a000000000000000000000000000000000000000000000000000000000815260040161054d90612389565b60405180910390fd5b8073ffffffffffffffffffffffffffffffffffffffff16610575610ca8565b73ffffffffffffffffffffffffffffffffffffffff1614806105a457506105a38161059e610ca8565b610aa5565b5b6105e3576040517f08c379a00000000000000000000000000000000000000000000000000000000081526004016105da90612269565b60405180910390fd5b6105ed8383610cb0565b505050565b6106036105fd610ca8565b82610d69565b610642576040517f08c379a0000000000000000000000000000000000000000000000000000000008152600401610639906123a9565b60405180910390fd5b61064d838383610e47565b505050565b61066d83838360405180602001604052806000815250610884565b505050565b6000806002600084815260200190815260200160002060009054906101000a900473ffffffffffffffffffffffffffffffffffffffff169050600073ffffffffffffffffffffffffffffffffffffffff168173ffffffffffffffffffffffffffffffffffffffff16141561071b576040517f08c379a0000000000000000000000000000000000000000000000000000000008152600401610712906122a9565b60405180910390fd5b80915050919050565b60008073ffffffffffffffffffffffffffffffffffffffff168273ffffffffffffffffffffffffffffffffffffffff161415610795576040517f08c379a000000000000000000000000000000000000000000000000000000000815260040161078c90612289565b60405180910390fd5b600360008373ffffffffffffffffffffffffffffffffffffffff1673ffffffffffffffffffffffffffffffffffffffff168152602001908152602001600020549050919050565b6060600180546107eb906125ee565b80601f0160208091040260200160405190810160405280929190818152602001828054610817906125ee565b80156108645780601f1061083957610100808354040283529160200191610864565b820191906000526020600020905b81548152906001019060200180831161084757829003601f168201915b5050505050905090565b610880610879610ca8565b83836110a3565b5050565b61089561088f610ca8565b83610d69565b6108d4576040517f08c379a00000000000000000000000000000000000000000000000000000000081526004016108cb906123a9565b60405180910390fd5b6108e084848484611210565b50505050565b60606108f182610c3c565b610930576040517f08c379a000000000000000000000000000000000000000000000000000000000815260040161092790612309565b60405180910390fd5b6000600660008481526020019081526020016000208054610950906125ee565b80601f016020809104026020016040519081016040528092919081815260200182805461097c906125ee565b80156109c95780601f1061099e576101008083540402835291602001916109c9565b820191906000526020600020905b8154815290600101906020018083116109ac57829003601f168201915b5050505050905060006109da61126c565b90506000815114156109f0578192505050610a33565b600082511115610a25578082604051602001610a0d9291906120c3565b60405160208183030381529060405292505050610a33565b610a2e84611283565b925050505b919050565b6000610a44600761132a565b9050610a503382611338565b610a75816040518061274001604052806127178152602001612c986127179139611356565b610a98604051806060016040528060258152602001612c736025913982336113ca565b610aa26007611469565b50565b6000600560008473ffffffffffffffffffffffffffffffffffffffff1673ffffffffffffffffffffffffffffffffffffffff16815260200190815260200160002060008373ffffffffffffffffffffffffffffffffffffffff1673ffffffffffffffffffffffffffffffffffffffff16815260200190815260200160002060009054906101000a900460ff16905092915050565b610bcf81604051602401610b4d9190612169565b6040516020818303038152906040527f41304fac000000000000000000000000000000000000000000000000000000007bffffffffffffffffffffffffffffffffffffffffffffffffffffffff19166020820180517bffffffffffffffffffffffffffffffffffffffffffffffffffffffff838183161783525050505061147f565b50565b60007f01ffc9a7000000000000000000000000000000000000000000000000000000007bffffffffffffffffffffffffffffffffffffffffffffffffffffffff1916827bffffffffffffffffffffffffffffffffffffffffffffffffffffffff1916149050919050565b60008073ffffffffffffffffffffffffffffffffffffffff166002600084815260200190815260200160002060009054906101000a900473ffffffffffffffffffffffffffffffffffffffff1673ffffffffffffffffffffffffffffffffffffffff1614159050919050565b600033905090565b816004600083815260200190815260200160002060006101000a81548173ffffffffffffffffffffffffffffffffffffffff021916908373ffffffffffffffffffffffffffffffffffffffff160217905550808273ffffffffffffffffffffffffffffffffffffffff16610d2383610672565b73ffffffffffffffffffffffffffffffffffffffff167f8c5be1e5ebec7d5bd14f71427d1e84f3dd0314c0f7b2291e5b200ac8c7c3b92560405160405180910390a45050565b6000610d7482610c3c565b610db3576040517f08c379a0000000000000000000000000000000000000000000000000000000008152600401610daa90612249565b60405180910390fd5b6000610dbe83610672565b90508073ffffffffffffffffffffffffffffffffffffffff168473ffffffffffffffffffffffffffffffffffffffff161480610e2d57508373ffffffffffffffffffffffffffffffffffffffff16610e1584610455565b73ffffffffffffffffffffffffffffffffffffffff16145b80610e3e5750610e3d8185610aa5565b5b91505092915050565b8273ffffffffffffffffffffffffffffffffffffffff16610e6782610672565b73ffffffffffffffffffffffffffffffffffffffff1614610ebd576040517f08c379a0000000000000000000000000000000000000000000000000000000008152600401610eb490612349565b60405180910390fd5b600073ffffffffffffffffffffffffffffffffffffffff168273ffffffffffffffffffffffffffffffffffffffff161415610f2d576040517f08c379a0000000000000000000000000000000000000000000000000000000008152600401610f2490612209565b60405180910390fd5b610f388383836114a8565b610f43600082610cb0565b6001600360008573ffffffffffffffffffffffffffffffffffffffff1673ffffffffffffffffffffffffffffffffffffffff1681526020019081526020016000206000828254610f939190612504565b925050819055506001600360008473ffffffffffffffffffffffffffffffffffffffff1673ffffffffffffffffffffffffffffffffffffffff1681526020019081526020016000206000828254610fea919061247d565b92505081905550816002600083815260200190815260200160002060006101000a81548173ffffffffffffffffffffffffffffffffffffffff021916908373ffffffffffffffffffffffffffffffffffffffff160217905550808273ffffffffffffffffffffffffffffffffffffffff168473ffffffffffffffffffffffffffffffffffffffff167fddf252ad1be2c89b69c2b068fc378daa952ba7f163c4a11628f55a4df523b3ef60405160405180910390a4505050565b8173ffffffffffffffffffffffffffffffffffffffff168373ffffffffffffffffffffffffffffffffffffffff161415611112576040517f08c379a000000000000000000000000000000000000000000000000000000000815260040161110990612229565b60405180910390fd5b80600560008573ffffffffffffffffffffffffffffffffffffffff1673ffffffffffffffffffffffffffffffffffffffff16815260200190815260200160002060008473ffffffffffffffffffffffffffffffffffffffff1673ffffffffffffffffffffffffffffffffffffffff16815260200190815260200160002060006101000a81548160ff0219169083151502179055508173ffffffffffffffffffffffffffffffffffffffff168373ffffffffffffffffffffffffffffffffffffffff167f17307eab39ab6107e8899845ad3d59bd9653f200f220920489ca2b5937696c3183604051611203919061214e565b60405180910390a3505050565b61121b848484610e47565b611227848484846114ad565b611266576040517f08c379a000000000000000000000000000000000000000000000000000000000815260040161125d906121c9565b60405180910390fd5b50505050565b606060405180602001604052806000815250905090565b606061128e82610c3c565b6112cd576040517f08c379a00000000000000000000000000000000000000000000000000000000081526004016112c490612369565b60405180910390fd5b60006112d761126c565b905060008151116112f75760405180602001604052806000815250611322565b8061130184611644565b6040516020016113129291906120c3565b6040516020818303038152906040525b915050919050565b600081600001549050919050565b6113528282604051806020016040528060008152506117f1565b5050565b61135f82610c3c565b61139e576040517f08c379a0000000000000000000000000000000000000000000000000000000008152600401611395906122c9565b60405180910390fd5b806006600084815260200190815260200160002090805190602001906113c5929190611a2d565b505050565b6114648383836040516024016113e29392919061218b565b6040516020818303038152906040527fe3849f79000000000000000000000000000000000000000000000000000000007bffffffffffffffffffffffffffffffffffffffffffffffffffffffff19166020820180517bffffffffffffffffffffffffffffffffffffffffffffffffffffffff838183161783525050505061147f565b505050565b6001816000016000828254019250508190555050565b60008151905060006a636f6e736f6c652e6c6f679050602083016000808483855afa5050505050565b505050565b60006114ce8473ffffffffffffffffffffffffffffffffffffffff1661184c565b15611637578373ffffffffffffffffffffffffffffffffffffffff1663150b7a026114f7610ca8565b8786866040518563ffffffff1660e01b81526004016115199493929190612102565b602060405180830381600087803b15801561153357600080fd5b505af192505050801561156457506040513d601f19601f820116820180604052508101906115619190611d71565b60015b6115e7573d8060008114611594576040519150601f19603f3d011682016040523d82523d6000602084013e611599565b606091505b506000815114156115df576040517f08c379a00000000000000000000000000000000000000000000000000000000081526004016115d6906121c9565b60405180910390fd5b805181602001fd5b63150b7a0260e01b7bffffffffffffffffffffffffffffffffffffffffffffffffffffffff1916817bffffffffffffffffffffffffffffffffffffffffffffffffffffffff19161491505061163c565b600190505b949350505050565b6060600082141561168c576040518060400160405280600181526020017f300000000000000000000000000000000000000000000000000000000000000081525090506117ec565b600082905060005b600082146116be5780806116a790612651565b915050600a826116b791906124d3565b9150611694565b60008167ffffffffffffffff811115611700577f4e487b7100000000000000000000000000000000000000000000000000000000600052604160045260246000fd5b6040519080825280601f01601f1916602001820160405280156117325781602001600182028036833780820191505090505b5090505b600085146117e55760018261174b9190612504565b9150600a8561175a919061269a565b6030611766919061247d565b60f81b8183815181106117a2577f4e487b7100000000000000000000000000000000000000000000000000000000600052603260045260246000fd5b60200101907effffffffffffffffffffffffffffffffffffffffffffffffffffffffffffff1916908160001a905350600a856117de91906124d3565b9450611736565b8093505050505b919050565b6117fb838361185f565b61180860008484846114ad565b611847576040517f08c379a000000000000000000000000000000000000000000000000000000000815260040161183e906121c9565b60405180910390fd5b505050565b600080823b905060008111915050919050565b600073ffffffffffffffffffffffffffffffffffffffff168273ffffffffffffffffffffffffffffffffffffffff1614156118cf576040517f08c379a00000000000000000000000000000000000000000000000000000000081526004016118c6906122e9565b60405180910390fd5b6118d881610c3c565b15611918576040517f08c379a000000000000000000000000000000000000000000000000000000000815260040161190f906121e9565b60405180910390fd5b611924600083836114a8565b6001600360008473ffffffffffffffffffffffffffffffffffffffff1673ffffffffffffffffffffffffffffffffffffffff1681526020019081526020016000206000828254611974919061247d565b92505081905550816002600083815260200190815260200160002060006101000a81548173ffffffffffffffffffffffffffffffffffffffff021916908373ffffffffffffffffffffffffffffffffffffffff160217905550808273ffffffffffffffffffffffffffffffffffffffff16600073ffffffffffffffffffffffffffffffffffffffff167fddf252ad1be2c89b69c2b068fc378daa952ba7f163c4a11628f55a4df523b3ef60405160405180910390a45050565b828054611a39906125ee565b90600052602060002090601f016020900481019282611a5b5760008555611aa2565b82601f10611a7457805160ff1916838001178555611aa2565b82800160010185558215611aa2579182015b82811115611aa1578251825591602001919060010190611a86565b5b509050611aaf9190611ab3565b5090565b5b80821115611acc576000816000905550600101611ab4565b5090565b6000611ae3611ade84612409565b6123e4565b905082815260208101848484011115611afb57600080fd5b611b068482856125ac565b509392505050565b600081359050611b1d81612c16565b92915050565b600081359050611b3281612c2d565b92915050565b600081359050611b4781612c44565b92915050565b600081519050611b5c81612c44565b92915050565b600082601f830112611b7357600080fd5b8135611b83848260208601611ad0565b91505092915050565b600081359050611b9b81612c5b565b92915050565b600060208284031215611bb357600080fd5b6000611bc184828501611b0e565b91505092915050565b60008060408385031215611bdd57600080fd5b6000611beb85828601611b0e565b9250506020611bfc85828601611b0e565b9150509250929050565b600080600060608486031215611c1b57600080fd5b6000611c2986828701611b0e565b9350506020611c3a86828701611b0e565b9250506040611c4b86828701611b8c565b9150509250925092565b60008060008060808587031215611c6b57600080fd5b6000611c7987828801611b0e565b9450506020611c8a87828801611b0e565b9350506040611c9b87828801611b8c565b925050606085013567ffffffffffffffff811115611cb857600080fd5b611cc487828801611b62565b91505092959194509250565b60008060408385031215611ce357600080fd5b6000611cf185828601611b0e565b9250506020611d0285828601611b23565b9150509250929050565b60008060408385031215611d1f57600080fd5b6000611d2d85828601611b0e565b9250506020611d3e85828601611b8c565b9150509250929050565b600060208284031215611d5a57600080fd5b6000611d6884828501611b38565b91505092915050565b600060208284031215611d8357600080fd5b6000611d9184828501611b4d565b91505092915050565b600060208284031215611dac57600080fd5b6000611dba84828501611b8c565b91505092915050565b611dcc81612538565b82525050565b611ddb8161254a565b82525050565b6000611dec8261243a565b611df68185612450565b9350611e068185602086016125bb565b611e0f81612787565b840191505092915050565b6000611e2582612445565b611e2f8185612461565b9350611e3f8185602086016125bb565b611e4881612787565b840191505092915050565b6000611e5e82612445565b611e688185612472565b9350611e788185602086016125bb565b80840191505092915050565b6000611e91603283612461565b9150611e9c82612798565b604082019050919050565b6000611eb4601c83612461565b9150611ebf826127e7565b602082019050919050565b6000611ed7602483612461565b9150611ee282612810565b604082019050919050565b6000611efa601983612461565b9150611f058261285f565b602082019050919050565b6000611f1d602c83612461565b9150611f2882612888565b604082019050919050565b6000611f40603883612461565b9150611f4b826128d7565b604082019050919050565b6000611f63602a83612461565b9150611f6e82612926565b604082019050919050565b6000611f86602983612461565b9150611f9182612975565b604082019050919050565b6000611fa9602e83612461565b9150611fb4826129c4565b604082019050919050565b6000611fcc602083612461565b9150611fd782612a13565b602082019050919050565b6000611fef603183612461565b9150611ffa82612a3c565b604082019050919050565b6000612012602c83612461565b915061201d82612a8b565b604082019050919050565b6000612035602983612461565b915061204082612ada565b604082019050919050565b6000612058602f83612461565b915061206382612b29565b604082019050919050565b600061207b602183612461565b915061208682612b78565b604082019050919050565b600061209e603183612461565b91506120a982612bc7565b604082019050919050565b6120bd816125a2565b82525050565b60006120cf8285611e53565b91506120db8284611e53565b91508190509392505050565b60006020820190506120fc6000830184611dc3565b92915050565b60006080820190506121176000830187611dc3565b6121246020830186611dc3565b61213160408301856120b4565b81810360608301526121438184611de1565b905095945050505050565b60006020820190506121636000830184611dd2565b92915050565b600060208201905081810360008301526121838184611e1a565b905092915050565b600060608201905081810360008301526121a58186611e1a565b90506121b460208301856120b4565b6121c16040830184611dc3565b949350505050565b600060208201905081810360008301526121e281611e84565b9050919050565b6000602082019050818103600083015261220281611ea7565b9050919050565b6000602082019050818103600083015261222281611eca565b9050919050565b6000602082019050818103600083015261224281611eed565b9050919050565b6000602082019050818103600083015261226281611f10565b9050919050565b6000602082019050818103600083015261228281611f33565b9050919050565b600060208201905081810360008301526122a281611f56565b9050919050565b600060208201905081810360008301526122c281611f79565b9050919050565b600060208201905081810360008301526122e281611f9c565b9050919050565b6000602082019050818103600083015261230281611fbf565b9050919050565b6000602082019050818103600083015261232281611fe2565b9050919050565b6000602082019050818103600083015261234281612005565b9050919050565b6000602082019050818103600083015261236281612028565b9050919050565b600060208201905081810360008301526123828161204b565b9050919050565b600060208201905081810360008301526123a28161206e565b9050919050565b600060208201905081810360008301526123c281612091565b9050919050565b60006020820190506123de60008301846120b4565b92915050565b60006123ee6123ff565b90506123fa8282612620565b919050565b6000604051905090565b600067ffffffffffffffff82111561242457612423612758565b5b61242d82612787565b9050602081019050919050565b600081519050919050565b600081519050919050565b600082825260208201905092915050565b600082825260208201905092915050565b600081905092915050565b6000612488826125a2565b9150612493836125a2565b9250827fffffffffffffffffffffffffffffffffffffffffffffffffffffffffffffffff038211156124c8576124c76126cb565b5b828201905092915050565b60006124de826125a2565b91506124e9836125a2565b9250826124f9576124f86126fa565b5b828204905092915050565b600061250f826125a2565b915061251a836125a2565b92508282101561252d5761252c6126cb565b5b828203905092915050565b600061254382612582565b9050919050565b60008115159050919050565b60007fffffffff0000000000000000000000000000000000000000000000000000000082169050919050565b600073ffffffffffffffffffffffffffffffffffffffff82169050919050565b6000819050919050565b82818337600083830152505050565b60005b838110156125d95780820151818401526020810190506125be565b838111156125e8576000848401525b50505050565b6000600282049050600182168061260657607f821691505b6020821081141561261a57612619612729565b5b50919050565b61262982612787565b810181811067ffffffffffffffff8211171561264857612647612758565b5b80604052505050565b600061265c826125a2565b91507fffffffffffffffffffffffffffffffffffffffffffffffffffffffffffffffff82141561268f5761268e6126cb565b5b600182019050919050565b60006126a5826125a2565b91506126b0836125a2565b9250826126c0576126bf6126fa565b5b828206905092915050565b7f4e487b7100000000000000000000000000000000000000000000000000000000600052601160045260246000fd5b7f4e487b7100000000000000000000000000000000000000000000000000000000600052601260045260246000fd5b7f4e487b7100000000000000000000000000000000000000000000000000000000600052602260045260246000fd5b7f4e487b7100000000000000000000000000000000000000000000000000000000600052604160045260246000fd5b6000601f19601f8301169050919050565b7f4552433732313a207472616e7366657220746f206e6f6e20455243373231526560008201527f63656976657220696d706c656d656e7465720000000000000000000000000000602082015250565b7f4552433732313a20746f6b656e20616c7265616479206d696e74656400000000600082015250565b7f4552433732313a207472616e7366657220746f20746865207a65726f2061646460008201527f7265737300000000000000000000000000000000000000000000000000000000602082015250565b7f4552433732313a20617070726f766520746f2063616c6c657200000000000000600082015250565b7f4552433732313a206f70657261746f7220717565727920666f72206e6f6e657860008201527f697374656e7420746f6b656e0000000000000000000000000000000000000000602082015250565b7f4552433732313a20617070726f76652063616c6c6572206973206e6f74206f7760008201527f6e6572206e6f7220617070726f76656420666f7220616c6c0000000000000000602082015250565b7f4552433732313a2062616c616e636520717565727920666f7220746865207a6560008201527f726f206164647265737300000000000000000000000000000000000000000000602082015250565b7f4552433732313a206f776e657220717565727920666f72206e6f6e657869737460008201527f656e7420746f6b656e0000000000000000000000000000000000000000000000602082015250565b7f45524337323155524953746f726167653a2055524920736574206f66206e6f6e60008201527f6578697374656e7420746f6b656e000000000000000000000000000000000000602082015250565b7f4552433732313a206d696e7420746f20746865207a65726f2061646472657373600082015250565b7f45524337323155524953746f726167653a2055524920717565727920666f722060008201527f6e6f6e6578697374656e7420746f6b656e000000000000000000000000000000602082015250565b7f4552433732313a20617070726f76656420717565727920666f72206e6f6e657860008201527f697374656e7420746f6b656e0000000000000000000000000000000000000000602082015250565b7f4552433732313a207472616e73666572206f6620746f6b656e2074686174206960008201527f73206e6f74206f776e0000000000000000000000000000000000000000000000602082015250565b7f4552433732314d657461646174613a2055524920717565727920666f72206e6f60008201527f6e6578697374656e7420746f6b656e0000000000000000000000000000000000602082015250565b7f4552433732313a20617070726f76616c20746f2063757272656e74206f776e6560008201527f7200000000000000000000000000000000000000000000000000000000000000602082015250565b7f4552433732313a207472616e736665722063616c6c6572206973206e6f74206f60008201527f776e6572206e6f7220617070726f766564000000000000000000000000000000602082015250565b612c1f81612538565b8114612c2a57600080fd5b50565b612c368161254a565b8114612c4157600080fd5b50565b612c4d81612556565b8114612c5857600080fd5b50565b612c64816125a2565b8114612c6f57600080fd5b5056fe416e204e465420772f20494420257320686173206265656e206d696e74656420746f202573646174613a696d6167652f6a7065673b6261736536342c2f396a2f34414151536b5a4a5267414241514141415141424141442f3277434541416f4843425956465267574668595947526761484277614768676147686f5a48426f5947686f6147526f6148426b634953346c4842347248786f614a6a676d4b7938784e545531484351375144737a507934304e5445424441774d4541385148684953486a516b495373304e4451304e4451304e4451304e4451304e4451304e4451304e4451304e4451304e4445304e4451304e4451304d5451304e4451304e4451304e4451304e4451304e502f414142454941524d4174774d4249674143455145444551482f784141624141414341774542415141414141414141414141414141444241414342515942422f2f4541447351414145444177494542414d4841774d45417741414141454141684544495445535151525259584546496f47524d71477842684e435573485238474c683852527967704b6973734956497a502f7841415a415145424151454241514141414141414141414141414141415149444241582f7841416b4551454241414942424141484151414141414141414141414151495245674d684d554554496a4a52595847524d2f2f61414177444151414345514d52414438415543493144614556725630656464714d774954576f37476f526467526d4e586a474a716c545561526a4579796d7661644e4d73706f314971316949796d6973596a73596a576757306c3739306d5178653656445252314a436453543561714f5971615a723661433569304874514873524e45584d516e424e76596c716a5553684642636a4f4345346f794335426531486555467856536c3342654b7a6c3669414e526d4e5147464d3030555272555a67587247684d4d5945564b624539535971556d4a746a464770466d424d4d617173616a73434b7578694947727871756f306b4b46713958684b43756c566346645453675863784365784f3656567a4554544e65784c564b6131483030732b6d716c6a4d6654537a324c527173534e56714d306f35436555536f6c6e76565a716a796f675648723156466d516d47464a4d4b5a70755544314e4f30516b6152543941685271473662553154616755796d6d4f5572634659314761314459344967636a51676853555055766453433270657971416f6a5367676156647243764e613946524262535634576c515646485645464830307255596d48504b413535524b557155316e385254576c5763732f69416b53737573456e554364724a4b6f56707a705a7a56463638714b6f5759553553437a654471467a5153494a414d637569307143423669316146414a4b673161464669793144564d4a6c67514b595454564b32753146613155617268466977617242716f43765a525241417652434871586d70416156354b436169384e52416255764335414c315857696247633942653955653942653956486c563652726c4d50636c61726b53732b756b4b685768584b7a3679726e537a79764652355556464f423456724768726344312b61314b44457477374a414949576a516f71454d55516e716142536f706c6c49714e7777776f7a4870647243726955614d6836734870594f4b39314947645367656c673965366b444f7465616b454f567767396371457178436f5167384c31345872787a5651796739633544655665436850616745354c564579384a537338497a5374564956334a6d732b556a78415659704f71395243716c5256446e6844644c5130416147744547544d376774507778334f566f31655061787a5761327465384852714249386f6b6b77524139567a50685847426a5856486b68704c576b41534a315148744979444a6e66354a6a7849666545505a3579783267687279484668476c376262655a70497a63724b37646c7750456c307977746a456b4762587863586b5151503044376167584d654856616a5742726d695a4e3269415271496159323873665250765a5549737270715a4e6f56687a587261344f4c3972726d587471346878485977744477716f473264716737332b554a705a57754b782f4937325247317254436534616d3033446965367457384e70767932447a46696f31716c36645a7032525157394648654473326e7553663356662f41493044496e6b554f367a715955464a5130644d5155647275696741615347366965617278764536415442734a3257552f7743305442686a7a326a3931533252704670436d6c59422b3154445a314e3476735269657358684e552f745077305863386443772f704f4531553552734e6f797248685a514f4738576f75477074527046743733356733434a5538587074456c343644632b694c7542566542435371654874356c65312f487943597079503930666f7336763472726449646f4749634a6a317755377332775770774464705762786642527a3935524f4a3432705941734d37745036536b2b49346d714a314d6165732f73717a6243566268676f6f2f692b626659714b73755a384c702b5a7031695a62626254506d45672f5552654c537476694f467030685565783757314836484579527061586a5557574c5354467831324354345477516141357763576e5334676e6f494d6a497a3771783848644975584e615078756a34695336664c42456152452f4e5a442f6856643442664961306d7a57694143506a4f426b7a593873725a70654a506931376d2f555a396a39456e534c48314e427530683051433177492f4672413342743239463048414e6f55324e59326d4470414575755864535172745a436a713955743153592b55716a4b373364434e2f374a37692b46446d68724845444f68787832642f4d4941704f6151496e6e3352573934547852686f63434a352f5662596156797642506c326e70626f51747267754d64706c7749694173313078706c2f4551593351482b4a74446730355074323772336a71656f61685938316c454e447454726e5939565331744d7274636974594e6c6c634a554a6e716d36565536344746435650454b42306b6863593377317a332f696963776365712b68466b685939546851787a693435475261456c4d73647557347a774e2f7735354f4d3737494e5437504670624275534134473854754375776f73633570414a4f39372f4a42344867334f6471646b4f75503256354d6359797166683459304e686f504d5a6e6d714e34497464714e2b6671756d64774e2b36562f77446a744a6d65366d32754c50623461484e4535356242654e38465a6b693457766f434b3441424e6d6f35666950424a764d786a7674364a4b7434633572632f77426c31646179352f783378686c467045677667454d76676b5a49785a586157534d4a2f427459664d5265776e6335747a3355584d654e654b4869487952706141495a4a496d4c6e335556633352557645793568615733306b36344c6d734d78353273764861396a4d516c4b39576d2b6b582f4148706751304e2b3761397850784f494c6f3167327559416131774a6c5950682f474e5a716b4855344546386b6e7a57754a45787a6844443246323742455745693542734c45373550525a7162623158784f58423145513138734c41504d357a43587871306b416c6c52316a4f4e697569384e61304e4265353270774263484f4a4453426a414732642f5a63342f78634e6131756c67307861485442426958583830516577504d4933432b4a73654a4c74424176714d444f427a784b704b374674656d4938375a3553697534756b434358324f534a4d6379754e6278564d76307366716354674137786a335459593447494b4e62644253385359352f3468794d41444a456b43387843306e2b4b4d6177744878547a744a4e70584a7365475a6235763841487a586a544e3735787a3570706556646a2f723368684f6c7352416d5a7775593472784a37706768765166795579376a76686951324e373348645a31656b346b754f3935734d3350644a4574326334627856776242395033542f41654d47774d5354326953735233444777487164756e52583454795042742f6d7945746653654872533372756b2b4c38772b71776d654f686869393234366757437a504650744d375337514e4a4945484d5a6b39314e4f6c796d6e5855754a6178704e706a354a536a34704d5330695a49736561344f6a346b383633456b6c3562357069772b384a67344d467774745a536e785439476e5863735942356a6148504d694f625443615935766f6250454e514d4738595758553854644a424d4c6b68786a7a42613479306d44664a6b4765595675493435326e57352b52423547546b41594a48564e467a64617a696a654c386a6c512b4d4d44767533504165496b454865493236726a482b4c6b756c6a334e326765554162336d657178362f694a4e5176314f647635727a474a356a3946546d362f782f3751365a5a5464357759635974624945372b69342f7741533476575850643854726d3656346e6969346c32354a4e3447544a534e5a364d334c594652386c5244637655555531433452416e4d376e59627859452b364d36695931427572534a494d3245674352504d6c4b7366704d794c3576364a3463513930615353594c6567455154617745484a2f7741484b376c5a34656362636c63505768583446756b50694a63514c6938436278624e3834684c564f4530734c745738524738346d64763152655555703179444e2b382f546b6e5838573577414c33474d53542f4a757336693178774c63396b34326d3465595749494d7950724b4c6453744e7647754c32763148634278624e7259414d4533496a71753034576c546530456d37684c546a4669596e743768664e5143324a786266484a4f557645616a43484d6537564262716b32615736594534366568474557563058482b4c745a574447365873614c6b5041774a4d456d4366716e7133484d307444664d507a4445584276377267616a35646c4f63505669344f322f4a433131465078434e56344578482b667168446951794e2b574261637773482f56617241356a4f79394a4a4d7a37496d327658342b534c5741736c66395153376d4c5469797a486351344f4235667a43763841366b6d303236434d3749626272434435576d5852717638414c73716d424d7646707476734a6b392f6b73567462543574526e5966534e6c553163795442524e74523369424c6449622f774169526a39537337694b70494174417432376f4a65546b324735333753724e614a6d784232693539554c644b736433396b4e7869346e312f62644e505934473567665163757155724d634f6362484879516c42716a6346424a3356793644622f4b5865544e306169726e714b6a696f6a576836544362544539523276793770787644324962656247777a6b52456b526366355337486b44472f4c2b526c48613659634d666c414d6733692b4d33796a6c6c765939446933746b6741514e496d4d694c41394a4241364b6f4130616934586b4f614e75556a4a4e733455716347386c3767504c6d4e516e7a5973653474325157384f39704d734a694a67616f3970673950524353656c335579316f677a6a48374b6a486e4577725072336a4d526638416b387771617736352b576530496674424c54653858356f724b7530434e786a364b676530693975765261486833676a366731616d74595a755a4c6a426964504b5a7952684631746e2f6447647635757061385a4337506850736331374e51717544675945676154475a4752376c5a4869663263715553584f5964483571666e61657272537a75516d32724c504c44592f644e4d49494a6d2f4b667061367342766a6638414e7a356569394e634d5055334d373975572f756a4f392b437a474f636344314d49356f414e6d622f41446e6e75683854574c6f49334e6742662b36492b6d36515847446b41354f3134504e45436452655245644c376e2b6c574c664a4246373743353267693671413875374362546a41505255683733614774635364674a507932565853724e512f593539696f31353166764b334f46384477366f346950774e4d6e2f6b37394237725771665a6168556148734c6d456a6e72624d586b4f4d6d442f55464e745447317846536f5363323931595672515a76306b2b3557787866325771734a4a446e74324e4f35486470383373434f717252345a6f38725777656354667154664b62544c737848314a7439454d75572f553458546c312f514445326e6579445559306d53522f4f526d35526e6e4a36632b3952613958686d524e6a3956464e4e66456e324b73627343434354735a473372495236526148515a4777676e50706d2b795359386d772f6e382f564d4d6642676d787a4851456a6673716c6e33616e447638756b4567775245584241477135453447427a364c306b61684a42476d345a63744f3837697845397569566f695778596a4932634a74666e32503670763777734a6157672b55576a3467435341345a746672664b6a6c725648714d30734c6d754a4d433046336d4d75306d526e796b6d3857736c6e384d30736151476745574c5442734a677a6b7a4f313541564478376f41476b6743415841534a37587466714a7372765977364e4d69596152413079596b32506233525a32374f6b2b7a3368644e74566a69776170446a716830414456446468694a7a633332546e46766239342f513172574278416130426f45574a4146726d54366f5843563947703349514f3550374171764373314f41334a412f66395565696470703148427330556d38346e31636d71465147424a6e6162543142466a364956577070417646386e4559764e6f395168734778476277633248627a45583266644855743470396c75487279645033627a2b4e6c70504e7a4d4f2b523672672f4866737657346135477470494773664236694a59652f4f3072366177375750516d51434f5835534f68482b314f73496435534a427351362b6369534c323249423770746d3479766b484430437867674f4a395936597679743057653456484f4d744f76347243434a6b6b394d4c3646397166426675497255323632453644544d75677573477476384a4e674e69364c67674333416545696978757537396d324f6a704f35356b6d42736d334359356374615958686e6874567a57757145747445666a497a4851643038326d786749593041666963492f376e484a2f6c6b37784e544f4430326a2f414e766b466c3851386e7666702b67306a4835635a4b72704d5a697056716559432f7a48792f55774c72583846664c43336b666b626a3579756471644c336b432f65514e5030482f41435770344a576970477a322f4d5848796c53724c33644a536175562b3156494d724631346530486f546470376d7936796b734837615553574d654a7353777879634a3942495568315a76467a62474d63424d616375644a61473347414c7a6550355a62697a5362476d385275626a704e6f2f5a4b315134692b71324f5838776b594a2b587374504e4a6675646678445a4d434a754e68614a46694a7a7a55534e572b46455858354a4d484e4d4d624c6d6a766d7777656141544e682b782f77694d7448506e79527531705547454f494c6a5a6f64497641692f7976433042576148334c326c6f4d3672434a4751524d6d3175697961565347324a4a357a36676a2b46467347693769544d69526b6a6338685a484c4b39326c5265317a395447695777435149477256494f6232484c644659317063324d74755941474d544673786a6b756662556873366944796e41746365702b52576c3464554c6e7576694c5142633975794e5979386f3357753872522b596b6e733052395356722b434d6c382f6c4250716244395669744d756a6b304431506d503158522b434d6868647a507948393555656965576a5766356836644463336732504c42505a587063686b37596e554e7848544a61556d3134635352316d4c354d59625054346d48756a734e7074414d3277446d62427a5a6e6f334b4e6e412f726a636e665645544e726253503841627372366866614c5269415974664861414f6851577650586c653359544e34675963633455632f626c6e39746f42782b4766367052532f6a586970703078426e7a30786354482f324e6e767648496a6d6c712f4761784f4f6e7a762f414350665573723755753867483962506b3976397632466770777235626d30535a774d582f6e7544636d4c6c3345346833794d6d2f5065646a744e70356c494f6165774735694c546933584941376c4f566167474c6e4d6e61647733627559376c5a31656f5466322f5742462f52727536724e41716c6f7a35766b32332f6b666332562b467236584e666a535249676932346769634643653635357a654354394c78334c657944514f52746d337a77492b5a5166514b626b4c78716b483048673744562f30332b6b70667769767270734f3445487532333653744d4351527a454c4c70356a35665834694748524942362f763257572b7070476b4e427445334b302f454b5768376d666c4c68637a386f33536236414c5162366f484b386a757274355a4a504c4e6256494b694e39334f5342662b5845796f71764c456d7a72315248764a4d6a396771426e716a6d77526265363344315142622b5a75455556477751543554457861386265337a53744d68786873446539384a6c35466e526e4941693939783763305975746d61656e34674470694c47494e784d386f4f2f494c51344767415445414f49694e686a4f36794b62774e34417462387472353959577877726f62625a74753573506d51693454356a2f414137706c334d6b2b6d337968645a773430553269514941755979652f55726d76443655756133615237442b77585356716b41514d2f376f397743426e6453753852686d4a3346704d3445474136514c636e59523275694c6e614a6d5a766a56334f48464a30583242424d5a4d5833334c435154455a623670696b664c624562524758544f6745633874526f32307866636a71435a357a44736950785737717452344859656d6d593566444d542b4873634c78706b486c693045536252416c747358614d4b7233345050666e4a6d415a6a595761372f696975642b305a386b66314d3949653078307a693359546348444f3876386d42766d3059326a6d33434e396f66676e2b70733977397674326762324533576f6d335861334c742f427a626856692b52586d343978504f6367527933412f354a56377845375a365a357a45347934396b563738636963324f426d5359503841336c4265776e61346943536657435a4d646731454c314847414e7241544564684941396d386b4b59634a37435a6e3364632b67434d384e42755a504a6f4d3235784c6a746b6f4a7141534767412b35505568736e334b446f2f7331577339683249635057782b673931306243754b384772366172447337796e2f6c6a3577757970755761336a657a352f38416130614f4a635973344e664f3048796e7463465937585331334c6f4c5a58562f6233685152546645334e4d2b7350622f414f4c7664635a384e73536470364b787879783731487667522b696957652b2f37714b733841326d79686365536f4636436936456f78506f505a4f303261764e717a6d2f73545932364a61693759343678434947474d674335452f332f6c6b6338764977706b4f4a4766516a315036446d7469673277366b6577763951315a46466b6b574a484d4577446e6c33744b32715978326e334d662b767a557270302f446138475a356965512b5a2f68576a56644c386643496b584d3573576e57444851706277706b4d6e6d5a394d666f7175667250504d437a6f4f66684f6c3450722b4c7171366d3258764d6e306352662f4149763239776d5747596d354f7879434a6b674f307633472b3654612b43415475514154767a696f4a4d574d676f375857417744492f4c4d37513446684564597a736f707a4e7a6e743573663161587a625a7877724370424e684a69526b3274657764366b4549594f4d4e626a6b4d6b7942356d473362394656377258734e6862544534424a4c4a6e6b3570525750342b476d6e492f70744d69413976776e63435936644e305757392b6d51626335507565675768343338447638416a332b4e6f4762375a4d394473733535756635614e3734786b676431574b39632b4a6744567a69547a784d6a31495339523564656262336b434f656b6765354b3965364266346573514f784d4e6a734367504a4d65774f662b3530447059626f4b4532356a6b4c69426244596150556c4249326d52754d37666c62356664456466714e70754a696375686f33774549337a3572542b595a3532614542614434786c7036576934734c4264377774585731726868774239784b2b65306e33696475637859624e454379362f374f313956505475306b6568755071665a537269592b303344612b477144646f316a757a7a4835417235695845386a305832457444684277624873563872712b48466a3373676b736352706d4a416d445061443670474f746461724c6332646f586964715553484567482f505a654b736371512b37767a3931595535322f6e5a554e5143794e51716a2b5a397769586c4a74555544794f386a2b794d786a51444e2b6b373837595872693058445962306d655552505652726874505933417a316e64474c6254664347534d3877445943337364377255626e35656f6766554c4f34426f315974612f4d5a4a5772774c4a654a357966532f77425564756e506c62383657514c77414d45394d4336417834496a4f326b6b4f696636616b486e75716351346b41524f2f7736726a4670426e4f4651564d674535787176485052556944614d376c485136313561496e5437732b54395465746a395578534d6245544d514332415a6d374a615936674a4576302f30382f697069435242456774504c3352324f7649352f4541635779366e45656f5150384f365a634f5878434479456171634730627456326e4a426b354d5a694e7979436337744b5670506d426d32326c38524f59307648396b647a6762574a326d385a6b414f683052794b697337786354536566706964596d3474506f447a42575a56463738376434326b5a7a6745334e31712b4b45476d2f6d4767586e566d6268773144316e48645a5045576476654d5466412f44632b344831565a6f4c7a3648456d78336a4d752b6942704d7a426b69356a5436533658657939656468626d426246384d6b7a6a4a516e764933695a74496144314145754b4337325a4a4948582b37702b6947357a547358653768377573716b5878746d49376564392b57464e4d3963624639726334627951564e55374164684c75552f43494333767335553031433338772b5976394a574a3932343546757270322f4b32337a5768774c7444324f2f4b52303732516a7432726c6674413352584c2f684261487a457a2b46772b512f366c317a4175662b3133437978723765516b476679764837675a556e6c6e7234377776346364784e545743494141355a4a6e507a5552612f434f44576c746a4a7543494969782b6f55576e6a6d5630356b74362f4a57614474487956473356324f3678792f6d796a315565692b497a2b364a534452505059337a316a39554a676e4a2f6d2b364a5264666d44596964755756584b2b327077445a31487631756248366c6233686444346e656e366e39466b634b474d594c7839666231577477486974494e306b75615a4f52592b3037516f394f45314464586879376352794c5a45383545456536716162787363374f44682f3076487942526166457364384c326e735250736a79696b4775302f7742486f356741744d6b53303255315731524f444d4231787671706d656434335876483865474471734e6e484e633658472b30572b59374c4e796b61787775586830644b74724f6b77646f386a67494f5331304f472b366531324d372f684e704a6e38465352374f3258503850784c54625744304d4f376943443956716348583148534853594a4d45744248505137554a7630546c4b58444b65594a346c5033565147624466554f636b41323969736269795a3369427a50797333314a5776786f50334c3562707362514274304a4237724634385352596b78796d337159433078536c616f42673235416b6a4a2f437942376c42707546354a463741414433693670784c69424a78315036434173345643544d32354c467939523136574576652b4776544635306734457848727265623432524e626e596a306c392b75414662674b4c64494a416e6d6270347262466a4f2b366563683064584276795a2b364e525a7045573651492f796d48494e52344753694f3138487236365444764548754c666f722b4c30432b69396f7957474f7046775058433572774878686c4d4f593930416d51594a4678426d4d594336706c64726d687a58427a546767794436685a61387a54676158455539496b674167576d444f2f7a756f73727863696c5671734579486d492f496274486f43464670382f345659526b326a315561305464545546374d3352366430554f486f45526a627950576671674e6449566d76384135756a4f6d6e547245774e517a467859536a564a623851626d4c4830786e354a426c51574d4133352b795a4e53524f71534e6e58736d6939544b43764241424c53416347786e747a565278645a70686a6e6a624a4139734a656e78447859474134396965563837424d56754c315075414d53426a554d6e75706c645230364f57576557716464514a486e6671643167543241574e7867306d576d52742b6f58553848706330413348493343543858384761377a4d67484a4173486633584839766f53616d6f352b6b3930694a6e32585a2f5a3367334d6c37334175496742704467305a4d6b574a734d4c6a6131423762746359356376644164786452687362394c483343316a78633875566d6e30727853703548446f666f734c6961746c7a6250474f4a6a53645435466d2f4679334e385468475a56714545314351646d6d78373257376c4a484c48703557366f6e456352716b62495044556239417168743867446d5671634f366a706d63412f45544e7341414154506459786c74326466717a707959362f673150696730596e354b4f34317878413950335751337846774a6c724343496950683667356e7169384d307662712b496c2b6d4e56684e354c522b472f795854547a2f466b3947333158484a4b453577414a4a45626e4d6434776e6e63437758496138527342725a2f55414c4563776c4f4a38506577476f32504b41644d574c5a75644a392f51386b306c366c3952536b34506e544c694271494759337359566547385a6454643548505a7a76415064747766566139616b77366549704272586a346d6a44775263656f5750346a776a585256706736584175642f536478386a626f5664467a6f50483171746435714f61774f49413872325869306d446d506f76556b2b6a7175414f706752504a52453551692f4b753341396630555552752b49737a4b7350312f64525247614b7a2b653649627a305555527a39764759524238666f4646466e503658626f6636523058686877745370685252635830574c787a427166627239566a4267316d3233366c5252494e486747414f78792b694434743854653336714b4b4e4d2b706e30516d37714b4c30592b487a6574396465484a395662686e6b53516233756f6f744f47586a2b482b4472754f5354423337466472346853622f703347422f38416d372f7855555572553975566f75774e744974324374346676332f565252567a6e70692b4a504966414d446b4646464648562f2f32513d3da26469706673582212202713628cd9c3521ec38033200fb00232e3b2cb9fac6f0310489b00be83ad28d964736f6c63430008040033",
  "linkReferences": {},
  "deployedLinkReferences": {}
}